:03000000020800F3
:0C080000787FE4F6D8FD75810B020847F4
:0809010002080000020A0000D8
:1008B800D3EF9400EE940040147D707C00ED1D7021
:0D08C800011CED4C70F7EF1F70E61E80E381
:0108D5002200
:1008F100758901758C3C758AB0D2AFD2A9D28C2290
:10088C00D2901208F1E509641445087006B290F58F
:10089C0008F509E50B6464450A70EAC2A37F32FED1
:0C08AC001208B8D2A3E4F50AF50B80D9BD
:03000B000208D612
:1008D600C0E0758C3C758AB00509E509700205080B
:0B08E600050BE50B7002050AD0E032A4
:10080C0002088CE493A3F8E493A34003F68001F26E
:10081C0008DFF48029E493A3F85407240CC8C333ED
:10082C00C4540F4420C8834004F456800146F6DFBC
:10083C00E4800B0102040810204080900901E47E42
:10084C00019360BCA3FF543F30E509541FFEE493B1
:10085C00A360010ECF54C025E060A840B8E493A378
:10086C00FAE493A3F8E493A3C8C582C8CAC583CAA3
:10087C00F0A3C8C582C8CAC583CADFE9DEE780BE5B
:0109090000ED
:00000001FF
