:030000000200C734
:0C00C700787FE4F6D8FD75812002010E60
:100192008F4F4F1F3F065B4F666D7D077F6F777CEA
:0E01A200395E7971BF86DBCFE6EDFD87FFEF9A
:0501D500C180010800DB
:1001B0007E71EFD39400400CEED3940040031E8078
:0401C000F71F80EEB7
:0101C4002218
:100173001F43A0F0EDBF02059001A68003900196F6
:0F01830093F580EF9001929352A07F050201B097
:10015300AC03AB05AD077F04120173AD037F03123C
:100163000173AD047F02120173AD137F01020173AA
:07000300D2A9D2AFD28C227A
:0701CE00C2A9C2AFC28C22DE
:10000E00758901758C4CE4F58A20B31F7F0A1201A5
:10001E00B020B31720B31430000512000380031272
:10002E0001CEB200D2A37590FF80E920B4207F0AE2
:10003E001201B020B41820B4151201CED200D2A3F2
:10004E007590FFE4F508F50AF509F50B80E8300028
:10005E000D0508E508B464066390FFE4F508E50AAB
:10006E0064147025F508F50A0509E509B43C09E4A0
:10007E00F509050BC2A3D2A3E50BB43C03E4F50BC3
:10008E00C2A37F0A1201B0D2A3E50975F00A8485D6
:10009E00F00CE50975F00A84F50DE50B75F00A8490
:1000AE0085F00EE50B75F00A84F50F850C13AB0D7C
:0900BE00AD0EFF12015302001700
:03000B000201C52A
:0901C500758C4C758A00050A32A4
:1000D30002000EE493A3F8E493A34003F68001F235
:1000E30008DFF48029E493A3F85407240CC8C3332E
:1000F300C4540F4420C8834004F456800146F6DFFD
:10010300E4800B01020408102040809001D5E47EB6
:10011300019360BCA3FF543F30E509541FFEE493F1
:10012300A360010ECF54C025E060A840B8E493A3B8
:10013300FAE493A3F8E493A3C8C582C8CAC583CAE3
:10014300F0A3C8C582C8CAC583CADFE9DEE780BE9B
:0101DA000024
:00000001FF
