:030000000203D820
:0C03D800787FE4F6D8FD75811A02041F3E
:100506003F065B4F666D7D077F6F777C395E79713D
:10051600003F065B4F666D7D077F6F777C395E799E
:0F05260071BF86DBCFE6EDFD87FFEF8F4F4F1FD5
:0C0543000212000002140000021600006A
:0D053500EFD3940040077E70DEFE1F80F3C0
:010542002296
:1004A100EF1F70011E43A0C0EF64024E74062DF5CC
:1004B1008274053CF583E493F58074312FF58274E1
:1004C100053EF583E49352A0D2A4D2A5C2A6C2A749
:0504D1007F0502053566
:1004D6008C0C8D0DAD07AC067F047E001204A1AD19
:1004E6000DAC0C7F037E001204A1AD03AC027F02AB
:1004F6007E001204A1AD11AC107F017E000204A1A2
:04046400AF097E005E
:10046800C3EF940AEE94005017D2A4C2A5C2A6C244
:10047800A774062FF58274053EF583E493F5802270
:10048800D2A4D2A5C2A6C2A7E4F510F511FBFA7D45
:0904980003FC7F02FE1204D622CF
:1000030075B0FE85B0085308F0E50864F07003028C
:1000130000BF7F0A12053585B0085308F0E5086470
:10002300F070030200BF85B008E5082482607124E4
:10003300C0604424E0602224F07070750901E51764
:100043004516700BE5092513F513E43512F512E592
:1000530017640145167054803A750902E517451671
:10006300700BE5092513F513E43512F512E5176452
:100073000145167036801C750903E5174516700B8C
:10008300E5092513F513E43512F512E51764014567
:10009300167018E5092515F515E43514F514800BCC
:1000A300E4F518F51675170175090AE50864F0609B
:1000B3000885B0085308F080F212046475B0FD851A
:1000C300B0085308F0E50864F0700302017C7F0A6E
:1000D30012053585B0085308F0E50864F070030293
:1000E300017C85B008E5082483607124C060442442
:1000F300E0602224F07071750904E5174516700B52
:10010300E5092513F513E43512F512E517640145E6
:10011300167055803A750905E5174516700BE50904
:100123002513F513E43512F512E51764014516702E
:1001330037801C750906E5174516700BE50925136D
:10014300F513E43512F512E517640145167019E548
:10015300092515F515E43514F514800C75090B758F
:100163001801751600751701E50864F0600885B07D
:10017300085308F080F212046475B0FB85B008538D
:1001830008F0E50864F070030202397F0A120535AE
:1001930085B0085308F0E50864F07003020239855E
:1001A300B008E5082485607124C0604424E060221F
:1001B30024F07071750907E5174516700BE50925DD
:1001C30013F513E43512F512E5176401451670555E
:1001D300803A750908E5174516700BE5092513F5EF
:1001E30013E43512F512E517640145167037801CC8
:1001F300750909E5174516700BE5092513F513E491
:100203003512F512E517640145167019E509251530
:10021300F515E43514F514800C75090C7518027581
:100223001600751701E50864F0600885B0085308E7
:10023300F080F212046475B0F785B0085308F0E556
:100243000864F060647F0A12053585B0085308F02E
:10025300E50864F0605385B008E5082489602D241F
:10026300C0601E24E0601524F0702DE4F512F51330
:10027300F514F515F516F517F509801CE4F5098055
:1002830017750909751600751702800C75090D7528
:100293001803751600751701E50864F0600885B04A
:0902A300085308F080F212046413
:0102AC00222F
:10034A0043A0F0D2A4C2A5C2A6C2A7120003E51711
:10035A00640245167016E5187012E5132515F51A8C
:10036A00E5123514F519AF1AFE120468E51764028E
:10037A0045167018E518B40113C3E5139515F51A57
:10038A00E5129514F519AF1AFE120468E51764020E
:10039A0045167017E518B40212AC14AD15AE12AFBB
:1003AA00131202AD8E198F1A120468E517640245FA
:1003BA00167098E51864037092AC14AD15AE12AFBE
:0E03CA00131202BF8E198F1A12046802035517
:1003E40002034AE493A3F8E493A34003F68001F2E2
:1003F40008DFF48029E493A3F85407240CC8C3331A
:10040400C4540F4420C8834004F456800146F6DFE8
:10041400E4800B0102040810204080900543E47E30
:10042400019360BCA3FF543F30E509541FFEE493DD
:10043400A360010ECF54C025E060A840B8E493A3A4
:10044400FAE493A3F8E493A3C8C582C8CAC583CACF
:10045400F0A3C8C582C8CAC583CADFE9DEE780BE87
:01054F0000AB
:1002AD00EF8DF0A4A8F0CF8CF0A428CE8DF0A42E65
:0202BD00FE221F
:1002BF00C2D5EC30E709B2D5E4C39DFDE49CFCEE5A
:1002CF0030E715B2D5E4C39FFFE49EFE1202F5C3DB
:1002DF00E49DFDE49CFC80031202F530D507C3E4D6
:0602EF009FFFE49EFE22C9
:1002F500BC000BBE0029EF8DF084FFADF022E4CCED
:10030500F875F008EF2FFFEE33FEEC33FCEE9DECB5
:10031500984005FCEE9DFE0FD5F0E9E4CEFD22EDFB
:10032500F8F5F0EE8420D21CFEADF075F008EF2F45
:10033500FFED33FD4007985006D5F0F222C398FD36
:050345000FD5F0EA22D3
:00000001FF
