:030000000200A259
:0C00A200787FE4F6D8FD758107020003AA
:0400AE00065B4F6638
:10004400D3EF9400EE940040147D707C00ED1D709D
:0D005400011CED4C70F7EF1F70E61E80E3FD
:01006100227C
:100062009000AEE493F580D2A4C2A5C2A6C2A72294
:100072009000AFE493F580C2A4D2A5C2A6C2A72283
:100082009000B0E493F580C2A4C2A5D2A6C2A72272
:100092009000B1E493F580C2A4C2A5C2A6D2A72261
:100003007580FF20B40C12006230B50630B60320B1
:10001300B7F420B50C12007230B40630B60320B723
:10002300F420B60C12008230B40630B50320B7F4C6
:1000330020B7CD12009230B4C730B6C420B5F480D7
:01004300BFFD
:00000001FF
