:03000000020948AA
:0C094800787FE4F6D8FD75810902096093
:04096A00777C395EFF
:10089E00E493F580D2A4C2A5C2A6C2A77F647E004F
:1008AE001208C2A3E493F580C2A4D2A5C2A6C2A721
:0408BE007F647E00D5
:1008C200D3EF9400EE940040147D707C00ED1D7017
:0D08D200011CED4C70F7EF1F70E61E80E377
:0108DF0022F6
:1009080090096AE493F580D2A4C2A5C2A6C2A72220
:1009180090096BE493F580C2A4D2A5C2A6C2A7220F
:1009280090096CE493F580C2A4C2A5D2A6C2A722FE
:1009380090096DE493F580C2A4C2A5C2A6D2A722ED
:1008E0001209087F017E001208C21209187F017EDA
:1008F000001208C21209287F017E001208C21209E4
:08090000387F017E000208C2ED
:100800007B647A001209081208BE1209181208BE89
:100810001209281208BE1209381208BE90096B127C
:10082000089EA3E493F580C2A4C2A5D2A61208BC78
:1008300090096AE493F580C2A4C2A5C2A6D2A71209
:1008400008BE90096C12089E90096AE493F580C274
:10085000A4C2A5D2A61208BCA3E493F580C2A4C288
:10086000A5C2A6D2A71208BE90096DE493F580D266
:10087000A4C2A51208BA90096A1208B2A3E493F5BB
:1008800080C2A4C2A5D2A61208BCA3E493F580C27C
:0E089000A4C2A5C2A6D2A77F647E000208C241
:0C095400E4F580D2A4D2A5D2A6D2A7223E
:0A096000E4F508F50912080080FB19
:00000001FF
