:0300000002009F5C
:0C009F00787FE4F6D8FD758109020003AB
:07007A007580B77F057E00D1
:10008100D3EF9400EE940040147D707C00ED1D7060
:0D009100011CED4C70F7EF1F70E61E80E3C0
:01009E00223F
:10000300C2A4C2A5C2A6C2A720B4FD7F0A7E001265
:05001300008120B4F3A0
:10001800E4F508F509D2A5D2A7C2A4C2A612007AAF
:10002800D2A4D2A6C2A5C2A775808812007D0509F0
:10003800E50970020508C39432E508940040D6E447
:10004800F508F509C3E5099432E508940050C1D2D2
:10005800A5D2A7C2A4C2A675808812007DD2A4D258
:10006800A6C2A5C2A712007A0509E50970D6050837
:0200780080D234
:00000001FF
