:0300000002007487
:0C007400787FE4F6D8FD758107020003D8
:100063003F065B4F666D7D077F6F777C395E7971E5
:01007300008C
:08003D00C2A6C2A77FF47E01F8
:10004500D3EF9400EE940040147D707C00ED1D709C
:0D005500011CED4C70F7EF1F70E61E80E3FC
:01006200227B
:10000300900068E493F580D2A4C2A512003DA3E456
:1000130093F580C2A4D2A512003DA3E493F580C258
:10002300A4C2A5D2A612003FA3E493F580C2A4C242
:0A003300A5C2A6D2A712004180C6A4
:00000001FF
